:02000000762D5B
:10000800FF00030E8301AB000A08AA008A018B1CBB
:100018000F288B10A10A2A088A002B0E8300FF0ED6
:040028007F0E09003E
:10002C00710DF80DF90D7408F8027508031C750FA5
:10003C00F902F00DF10D0F30FC00710DF80DF90DFA
:10004C007408701C2F28F8027508031C750FF90230
:10005C003428F80775080318750FF907F00DF10D22
:10006C00FC0B2328701840287408F807750803182F
:08007C00750FF90700000800F0
:1000840083120313FD01F801700803190034740688
:10009400FA00FA1BFD09FB01F41F5228F409F40AC3
:1000A400F01F5628F009F00A70087404FA00FA1BCD
:1000B4007A287408F802F00D700DF80D7408F8072A
:1000C400F00D0630FC00700DF80D74087018F8027D
:1000D400701CF807F00DFC0B6528701CF8077B18E2
:1000E4008828FD1F0034F009F00AF809F80A0034E2
:1000F400F41F8528F01B82287008F800F00173288B
:10010400F001F00A0034F009FB0A5B28F80A7408CD
:100114007802031D7328F801F00AF01F7328FF34D6
:020124000800D1
:0E0126008312031326088A00250882000800B1
:10013400831203137408003A031DA9287508003AB2
:10014400031DA928FF30F0007F30F100022983123B
:100154000313FD01F901F801710870040319003457
:1001640071087506FA00FA1BFD09FB01F51FBF288B
:10017400F409F509F40A0319F50AF11FC628F00970
:10018400F109F00A0319F10A71087504FA00FA1B5F
:10019400DB2816207B18EE28FD1F0034F009F10936
:1001A400F00A0319F10AF809F909F80A0319F90A16
:1001B4000034F51FEA28F11BE6287108F9007008DD
:1001C400F800F101F001CE28F101F001F00A003449
:1001D400F109F009FB0ACB28F80A0319F90A740893
:1001E4007802031DCE2875087902031DCE28F90173
:1001F400F801F00A0319F10AF11FCE280000FF34B8
:020204000800F0
:100206008312031308108811881008120811881227
:100216002630A20080302206F0008030003A7002BC
:10022600031C322B8030123AF00080302206700216
:100236000318B429081488160F302202AC00AD0149
:10024600031CAD030030A21BFF30AD070A30F400DB
:100256000030F5002C08F0002D08F1009A207008F7
:10026600A3000A30F4000030F5002C08F0002D0839
:10027600F1009A207808F0007908F1007008A400CF
:1002860012302202AC00AD01031CAD030030A21BEC
:10029600FF30AD070A30F4000030F5002C08F000FE
:1002A6002D08F1009A207008A7000A30F4000030EB
:1002B600F5002C08F0002D08F1009A207808F000CF
:1002C6007908F1007008A800A90180302906F0001D
:1002D6008030283A70020318B229061286160617CD
:1002E6008617230887000D30FC00FB30FD00FD0B50
:1002F6007A29FC0B7A2900000000061686120617DA
:100306008617240887000D30FC00FB30FD00FD0B2E
:100316008A29FC0B8A290000000006168616061399
:100326008617270887000D30FC00FB30FD00FD0B0B
:100336009A29FC0B9A290000000006168616061755
:100346008613280887000D30FC00FB30FD00FD0BEE
:10035600AA29FC0BAA2900000000A90A682988120C
:10036600302B80300F3AF0008030220670020318DE
:10037600382A081408160F302202AE00AF01031CFB
:10038600AF030030A21BFF30AF070A30F400003085
:10039600F5002E08F0002F08F1009A207008AC0036
:1003A6007108AD002C08A3000A30F4000030F500F7
:1003B6002E08F0002F08F1009A207808F00079083E
:1003C600F1007008A4002C08A7007008A800A90175
:1003D60080302906F0008030283A70020318352A4A
:1003E6000612861606178617230887000D30FC00AE
:1003F600FB30FD00FD0BFD29FC0BFD290000000074
:100406000616861206178617240887000D30FC008C
:10041600FB30FD00FD0B0D2AFC0B0D2A0000000031
:100426000616861606138617270887000D30FC0069
:10043600FB30FD00FD0B1D2AFC0B1D2A00000000F1
:100446000616861606178613280887000D30FC0048
:10045600FB30FD00FD0B2D2AFC0B2D2A00000000B1
:10046600A90AEB2908100812302B8030033AF00055
:100476008030220670020318C32A88150815033037
:100486002202AC00AD01031CAD030030A21BFF30FD
:10049600AD070A30F4000030F5002C08F0002D08F6
:1004A600F1009A207008A3000A30F4000030F5002D
:1004B6002C08F0002D08F1009A207808F000790841
:1004C600F1007008A4000A30F4002208F00042206F
:1004D6007008A7000A30F4002208F00042207808CD
:1004E600F0007008A800A90180302906F0008030CD
:1004F600283A70020318C12A0612861606178617AE
:10050600230887000D30FC00FB30FD00FD0B892A17
:10051600FC0B892A000000000616861206178617AD
:10052600240887000D30FC00FB30FD00FD0B992AE6
:10053600FC0B992A0000000006168616061386177D
:10054600270887000D30FC00FB30FD00FD0BA92AB3
:10055600FC0BA92A0000000006168616061786134D
:10056600280887000D30FC00FB30FD00FD0BB92A82
:10057600FC0BB92A00000000A90A772A0811302BC3
:100586008030003AF0008030220670020318302BCB
:10059600881588140A30F4002208F00042207008FA
:1005A600AC002C08A3000A30F4002208F000422018
:1005B6007808F0007008A4002C08A7007008A800AE
:1005C600A90180302906F0008030283A700203180D
:1005D6002E2B0612861606178617230887000D305F
:1005E600FC00FB30FD00FD0BF62AFC0BF62A000092
:1005F60000000616861206178617240887000D3097
:10060600FC00FB30FD00FD0B062BFC0B062B00004F
:1006160000000616861606138617270887000D3073
:10062600FC00FB30FD00FD0B162BFC0B162B00000F
:1006360000000616861606178613280887000D3052
:10064600FC00FB30FD00FD0B262BFC0B262B0000CF
:100656000000A90AE42A88108811A2030D290800BF
:10066600831203138618382BA00A8030033AF00051
:100676008030200670020318412BA001592D081066
:100686008811881008120811881286184C2BA00AA7
:10069600692D1430A20080302206F0008030003A26
:1006A6007002031CE02B86185A2BA00AE02B0814B4
:1006B600881603302207AC000030A21BFF30AD00C5
:1006C6000318AD0A0A30F4000030F5002C08F000DB
:1006D6002D08F1009A207008A3000A30F4000030BB
:1006E600F5002C08F0002D08F1009A207808F0009B
:1006F6007908F1007008A4000A30F4002208F0001E
:1007060042207008A7000A30F4002208F0004220B8
:100716007808F0007008A800A90180302906F000CA
:100726008030283A70020318DE2B86189C2BA00A0C
:10073600DE2B0612861606178617230887000D304D
:10074600FC00FB30FD00FD0BA62BFC0BA62B0000CE
:1007560000000616861206178617240887000D3035
:10076600FC00FB30FD00FD0BB62BFC0BB62B00008E
:1007760000000616861606138617270887000D3012
:10078600FC00FB30FD00FD0BC62BFC0BC62B00004E
:1007960000000616861606178613280887000D30F1
:1007A600FC00FB30FD00FD0BD62BFC0BD62B00000E
:1007B6000000A90A902BA2034E2B081688120330BC
:1007C600A20080302206F0008030003A7002031C3E
:1007D6004F2C0A30F4002208F00042207008AC00CA
:1007E6002C08A3000A30F4002208F0004220780802
:1007F600F0007008A4002C08A7007008A800A90142
:1008060080302906F0008030283A700203184D2CFB
:100816000612861606178617230887000D30FC0079
:10082600FB30FD00FD0B152CFC0B152C0000000009
:100836000616861206178617240887000D30FC0058
:10084600FB30FD00FD0B252CFC0B252C00000000C9
:100856000616861606138617270887000D30FC0035
:10086600FB30FD00FD0B352CFC0B352C0000000089
:100876000616861606178613280887000D30FC0014
:10088600FB30FD00FD0B452CFC0B452C0000000049
:10089600A90A032CA203E42B8618532CA00A692D5F
:1008A60008120810881508150C30A20080302206A0
:1008B600F0008030003A7002031CE92C8618652C83
:1008C600A00AE92C0A30F4002208F0004220700841
:1008D600A3000A30F4002208F00042207808F00055
:1008E6007008A40003302207AC000030A21BFF30C2
:1008F600AD000318AD0A0A30F4000030F5002C08EC
:10090600F0002D08F1009A207008A7000A30F400C4
:100916000030F5002C08F0002D08F1009A20780828
:10092600F0007908F1007008A800A90180302906B6
:10093600F0008030283A70020318E72C8618A52CA0
:10094600A00AE72C061286160617861723088700C4
:100956000D30FC00FB30FD00FD0BAF2CFC0BAF2C6B
:100966000000000006168612061786172408870060
:100976000D30FC00FB30FD00FD0BBF2CFC0BBF2C2B
:10098600000000000616861606138617270887003D
:100996000D30FC00FB30FD00FD0BCF2CFC0BCF2CEB
:1009A600000000000616861606178613280887001C
:1009B6000D30FC00FB30FD00FD0BDF2CFC0BDF2CAB
:1009C60000000000A90A992CA203592C08118814CA
:1009D6000330A20080302206F0008030003A700218
:1009E600031C582D0A30F4002208F000422070083B
:1009F600AC002C08A3000A30F4002208F0004220C4
:100A06007808F0007008A4002C08A7007008A80059
:100A1600A90180302906F0008030283A70020318B8
:100A2600562D0612861606178617230887000D30E0
:100A3600FC00FB30FD00FD0B1E2DFC0B1E2D0000E7
:100A460000000616861206178617240887000D3042
:100A5600FC00FB30FD00FD0B2E2DFC0B2E2D0000A7
:100A660000000616861606138617270887000D301F
:100A7600FC00FB30FD00FD0B3E2DFC0B3E2D000067
:100A860000000616861606178613280887000D30FE
:100A9600FC00FB30FD00FD0B4E2DFC0B4E2D000027
:100AA6000000A90A0C2DA203ED2C692D2008003A9E
:100AB6000319422B2008013A0319E02B2008023AB9
:0E0AC60003194F2C2008033A0319E92C0800ED
:100AD40093208A110A128000840AA50A0319A60A1F
:080AE400F003031D6A2D080058
:100AEC0083120313A001A10183168701880103302F
:100AFC00860083128801870186018B170B168316DB
:100B0C00011381131030FB003930FC000D30FD0057
:100B1C00FD0B8E2DFC0B8E2DFB0B8E2D0000000083
:100B2C000230F40083122108F00042207808F00013
:100B3C007008003A031DA42D0321A52D3323882D05
:020B4C00A62DD4
:02400E004A2F37
:00000001FF
